:020000000828CE
:02000800492885
:10001000831603170130880189018030810003179E
:10002000831289018801870183160313003096002B
:100030009D018E019F010030950001308500003048
:100040008600003087008312031398019401900109
:1000500097019D0141309F010030850000308600EE
:100060000030870000308C0000309100003092009A
:100070008316031302308C00FF309200C0308B00D7
:1000800083120313263092001F149F141E08A3002E
:100090004428A0000308A1008C1023186620A31890
:1000A000692023196C20A3196F20231A7220A31A28
:1000B0007520231B7820A31B7B2022087E28071095
:1000C0000030A20021088300200809000130A207A7
:1000D00008000230A20708000430A2070800083018
:1000E000A20708001030A20708002030A20708006D
:1000F0004030A20708008030A207080082077F294D
:100100007F297F297F297F297F297F297F297F29AF
:100110007F297F297F29832983298329832983298B
:10012000832983298329832983298329832987296B
:10013000872987298729872987298729872987293F
:100140008729872987298B298B298B298B298B291B
:100150008B298B298B298B298B298B298B298F29FB
:100160008F298F298F298F298F298F298F298F29CF
:100170008F298F298F2993299329932993299329AB
:10018000932993299329932993299329932997298B
:10019000972997299729972997299729972997295F
:1001A0009729972997299B299B299B299B299B293B
:1001B0009B299B299B299B299B299B299B299F291B
:1001C0009F299F299F299F299F299F299F299F29EF
:1001D0009F299F299F29A329A329A329A329A329CB
:1001E000A329A329A329A329A329A329A329A729AB
:1001F000A729A729A729A729A729A729A729A7297F
:10020000A729A729A729AB29AB29AB29AB29AB295A
:10021000AB29AB29AB29AB29AB29AB29AB29AF293A
:10022000AF29AF29AF29AF29AF29AF29AF29AF290E
:10023000AF29AF29AF29B329B329B329B329B329EA
:10024000B329B329B329B329B329B329B329B729CA
:10025000B729B729B729B729B729B729B729B7299E
:10026000B729B729B729BB29BB29BB29BB29BB297A
:10027000BB29BB29BB29BB29BB29BB29BB29BF295A
:10028000BF29BF29BF29BF29BF29BF29BF29BF292E
:10029000BF29BF29BF29C329C329C329C329C3290A
:1002A000C329C329C329C329C329C329C329C729EA
:1002B000C729C729C729C729C729C729C729C729BE
:1002C000C729C729C729CB29CB29CB29CB29CB299A
:1002D000CB29CB29CB29CB29CB29CB29CB29CF297A
:1002E000CF29CF29CF29CF29CF29CF29CF29CF294E
:1002F000CF29CF29CF29CF29CF29CF29CF293230D4
:10030000A4000714D3293C30A4000714D329463095
:10031000A4000714D3295030A4000714D3295A305D
:10032000A4000714D3296430A4000714D3296E3025
:10033000A4000714D3297830A4000714D3298230ED
:10034000A4000714D3298C30A4000714D3299630B5
:10035000A4000714D329A030A4000714D329AA307D
:10036000A4000714D329B430A4000714D329BE3045
:10037000A4000714D329C830A4000714D329D2300D
:10038000A4000714D329DC30A4000714D329E630D5
:10039000A4000714D329F030A4000714D329FA309D
:1003A000A4000714D3290000000000000000000092
:0803B0000000A40BD3295F2813
:04400E00F120FF3F5F
:00000001FF
