:020000000828CE
:02000800492885
:10001000831603170130880189018030810003179E
:10002000831289018801870183160313003096002B
:100030009D018E019F010030950001308500003048
:100040008600003087008312031398019401900109
:1000500097019D0141309F010030850000308600EE
:100060000030870000308C0000309100003092009A
:100070008316031302308C00FF309200C0308B00D7
:1000800083120313263092001F149F141E0887004A
:100090004428A0000308A1008C109E1960201E1A9D
:1000A00063209E1A66201E1B69209E1B6C2022085E
:1000B0006F2806100030A2002108830020080900E4
:1000C0000130A20708000230A20708000430A2078E
:1000D00008000830A20708001030A20708008207B5
:1000E00090289428942898289C289C28A028A42804
:1000F000A428A828AC28AC28B028B428B428B8284C
:10010000BC28BC28C028C428C428C828CC28CC288F
:10011000D028D428D428D828DC28DC28E028E028D7
:100120003230A3000614E4283C30A3000614E4286F
:100130004630A3000614E4285030A3000614E42837
:100140005A30A3000614E4286430A3000614E428FF
:100150006E30A3000614E4287830A3000614E428C7
:100160008230A3000614E4288C30A3000614E4288F
:100170009630A3000614E428A030A3000614E42857
:10018000AA30A3000614E428B430A3000614E4281F
:10019000BE30A3000614E428C830A3000614E428E7
:1001A000D230A3000614E428DC30A3000614E428AF
:1001B000E630A3000614E428F230A3000614E42875
:1001C000FF30A3000614E428000000000000000037
:0C01D000000000000000A30BE4285928E8
:04400E00F120FF3F5F
:00000001FF
