:020000000828CE
:0200080043288B
:10001000831603170130880189018030810003179E
:10002000831289018801870183160313003096002B
:100030009D018E019F010030950001308500003048
:1000400086000030870002308C00FF30920083125F
:10005000031398019401900197019D0141309F0184
:1000600000308500003086000030870000308C00B2
:100070000030910000309200C0308B001F149F149C
:100080001E0887003E28A0000308A1002108830065
:04009000200809003B
:04400E00F120FF3F5F
:00000001FF
